:020000040000FA
:04000000E8EF08F02D
:10100000005072657373203120666F7220526564E0
:101010002C203220666F722059656C6C6F772C2003
:101020003320666F7220477265656E202E2E2E0D5E
:101030000A0057656C636F6D6520746F20434F33F2
:0B1040003236204C6162330D0A0000C4
:10104C00E1EC08F0320E086E100E096E92EC08F00E
:10105C00060E0B6E130E0A6EAE0EE82EFED70A2E7F
:10106C00FCD70B2EFAD7010E086E100E096E92ECFF
:10107C0008F0AFEC08F00D6E58EF08F08A808A94F7
:10108C008A923FEF08F08A828A948A903FEF08F0A8
:10109C008A848A908A923FEF08F08A908A928A9486
:1010AC003FEF08F00D500A6E0B6A0B50000AD8B4D3
:1010BC0062EF08F053EF08F00A50310AD8B444EF4D
:1010CC0008F0030AD8B449EF08F0010AD8B44EEF7F
:1010DC0008F053EF08F000EF00F0080EB86E900E19
:1010EC00AB6E240EAC6ECF0EAF6E000EB06E000E5B
:1010FC00076E000E086EF7EC08F0000E076E000E7F
:10110C00086EF2EC08F0000E076E000E086EFCEC98
:10111C0008F0000E0C6E12009FEF08F008C0F6FFEE
:10112C0009C0F7FFF86A0800F550D6EC08F0084A39
:10113C00092A08C0F6FF09C0F7FFF86A0800F55045
:10114C000009D8A4ACEF08F0AEEF08F094EF08F06B
:10115C0012009EAAB4EF08F0B6EF08F0AFEF08F05B
:10116C00000E0C6EABA2BDEF08F0BFEF08F0C1EFA4
:10117C0008F0AB98AB88AE501200000E896E000ED2
:10118C008A6E000E8B6E9268F80E936EBF0E946E84
:10119C001F0E7E6E1F0E7F6E000E7C6EF18E120087
:1011AC00076E9EA8DCEF08F0DEEF08F0D7EF08F032
:1011BC0007C0ADFF1200C3EC08F0EDEC08F073ECC7
:1011CC0008F012000D6A0C6A000126EF08F0620E9E
:1011DC00D36E000E9B6E120007C003F008C004F023
:1011EC00120007C005F008C006F0120007C001F09D
:0611FC0008C002F0120021
:020000040020DA
:08000000FFFFFFFFFFFFFFFF00
:020000040030CA
:0E000000FF081F1EFF8985FF0FC00FE00F4095
:00000001FF
